{
  "contractName": "CompanyRegistry",
  "abi": [
    {
      "anonymous": false,
      "inputs": [
        {
          "indexed": true,
          "internalType": "uint256",
          "name": "companyId",
          "type": "uint256"
        },
        {
          "indexed": false,
          "internalType": "string",
          "name": "name",
          "type": "string"
        },
        {
          "indexed": false,
          "internalType": "string",
          "name": "vatNumber",
          "type": "string"
        },
        {
          "indexed": false,
          "internalType": "string",
          "name": "owner",
          "type": "string"
        }
      ],
      "name": "CompanyRegistered",
      "type": "event"
    },
    {
      "inputs": [
        {
          "internalType": "uint256",
          "name": "",
          "type": "uint256"
        }
      ],
      "name": "companies",
      "outputs": [
        {
          "internalType": "uint256",
          "name": "companyId",
          "type": "uint256"
        },
        {
          "internalType": "string",
          "name": "name",
          "type": "string"
        },
        {
          "internalType": "string",
          "name": "vatNumber",
          "type": "string"
        },
        {
          "internalType": "string",
          "name": "owner",
          "type": "string"
        }
      ],
      "stateMutability": "view",
      "type": "function",
      "constant": true
    },
    {
      "inputs": [],
      "name": "nextCompanyId",
      "outputs": [
        {
          "internalType": "uint256",
          "name": "",
          "type": "uint256"
        }
      ],
      "stateMutability": "view",
      "type": "function",
      "constant": true
    },
    {
      "inputs": [
        {
          "internalType": "string",
          "name": "_name",
          "type": "string"
        },
        {
          "internalType": "string",
          "name": "_vatNumber",
          "type": "string"
        },
        {
          "internalType": "string",
          "name": "_owner",
          "type": "string"
        }
      ],
      "name": "registerCompany",
      "outputs": [],
      "stateMutability": "nonpayable",
      "type": "function"
    }
  ],
  "bytecode": "0x608060405234801561001057600080fd5b5061088d806100206000396000f3fe608060405234801561001057600080fd5b50600436106100415760003560e01c80632813d19d14610046578063d0b0207414610079578063d8d3c82914610095575b600080fd5b610060600480360381019061005b919061052c565b6100b3565b6040516100709493929190610604565b60405180910390f35b610093600480360381019061008e9190610495565b61027b565b005b61009d61036f565b6040516100aa91906105e9565b60405180910390f35b60006020528060005260406000206000915090508060000154908060010180546100dc90610727565b80601f016020809104026020016040519081016040528092919081815260200182805461010890610727565b80156101555780601f1061012a57610100808354040283529160200191610155565b820191906000526020600020905b81548152906001019060200180831161013857829003601f168201915b50505050509080600201805461016a90610727565b80601f016020809104026020016040519081016040528092919081815260200182805461019690610727565b80156101e35780601f106101b8576101008083540402835291602001916101e3565b820191906000526020600020905b8154815290600101906020018083116101c657829003601f168201915b5050505050908060030180546101f890610727565b80601f016020809104026020016040519081016040528092919081815260200182805461022490610727565b80156102715780601f1061024657610100808354040283529160200191610271565b820191906000526020600020905b81548152906001019060200180831161025457829003601f168201915b5050505050905084565b60006001600081548092919061029090610759565b9190505590506040518060800160405280828152602001858152602001848152602001838152506000808381526020019081526020016000206000820151816000015560208201518160010190805190602001906102ef929190610375565b50604082015181600201908051906020019061030c929190610375565b506060820151816003019080519060200190610329929190610375565b50905050807fe598fb93752a7fcfddef450544662beff4d1442b382c4e01865a6e424768838e8585856040516103619392919061059d565b60405180910390a250505050565b60015481565b82805461038190610727565b90600052602060002090601f0160209004810192826103a357600085556103ea565b82601f106103bc57805160ff19168380011785556103ea565b828001600101855582156103ea579182015b828111156103e95782518255916020019190600101906103ce565b5b5090506103f791906103fb565b5090565b5b808211156104145760008160009055506001016103fc565b5090565b600061042b6104268461068f565b61065e565b90508281526020810184848401111561044357600080fd5b61044e8482856106e5565b509392505050565b600082601f83011261046757600080fd5b8135610477848260208601610418565b91505092915050565b60008135905061048f81610840565b92915050565b6000806000606084860312156104aa57600080fd5b600084013567ffffffffffffffff8111156104c457600080fd5b6104d086828701610456565b935050602084013567ffffffffffffffff8111156104ed57600080fd5b6104f986828701610456565b925050604084013567ffffffffffffffff81111561051657600080fd5b61052286828701610456565b9150509250925092565b60006020828403121561053e57600080fd5b600061054c84828501610480565b91505092915050565b6000610560826106bf565b61056a81856106ca565b935061057a8185602086016106f4565b6105838161082f565b840191505092915050565b610597816106db565b82525050565b600060608201905081810360008301526105b78186610555565b905081810360208301526105cb8185610555565b905081810360408301526105df8184610555565b9050949350505050565b60006020820190506105fe600083018461058e565b92915050565b6000608082019050610619600083018761058e565b818103602083015261062b8186610555565b9050818103604083015261063f8185610555565b905081810360608301526106538184610555565b905095945050505050565b6000604051905081810181811067ffffffffffffffff8211171561068557610684610800565b5b8060405250919050565b600067ffffffffffffffff8211156106aa576106a9610800565b5b601f19601f8301169050602081019050919050565b600081519050919050565b600082825260208201905092915050565b6000819050919050565b82818337600083830152505050565b60005b838110156107125780820151818401526020810190506106f7565b83811115610721576000848401525b50505050565b6000600282049050600182168061073f57607f821691505b60208210811415610753576107526107d1565b5b50919050565b6000610764826106db565b91507fffffffffffffffffffffffffffffffffffffffffffffffffffffffffffffffff821415610797576107966107a2565b5b600182019050919050565b7f4e487b7100000000000000000000000000000000000000000000000000000000600052601160045260246000fd5b7f4e487b7100000000000000000000000000000000000000000000000000000000600052602260045260246000fd5b7f4e487b7100000000000000000000000000000000000000000000000000000000600052604160045260246000fd5b6000601f19601f8301169050919050565b610849816106db565b811461085457600080fd5b5056fea26469706673582212201f5846fb6e24a9319a34f2474ec4c6d019e7c15cf8f025382b1368bf65c4360264736f6c63430008000033",
  "immutableReferences": {},
  "source": "// SPDX-License-Identifier: MIT\r\npragma solidity ^0.8.0;\r\n\r\ncontract CompanyRegistry {\r\n    struct Company {\r\n        uint companyId;\r\n        string name;\r\n        string vatNumber;\r\n        string owner;\r\n    }\r\n\r\n    mapping(uint => Company) public companies;\r\n    uint public nextCompanyId;\r\n\r\n    event CompanyRegistered(uint indexed companyId, string name, string vatNumber, string owner);\r\n\r\n    function registerCompany(string memory _name, string memory _vatNumber, string memory _owner) public {\r\n        uint companyId = nextCompanyId++;\r\n        companies[companyId] = Company(companyId, _name, _vatNumber, _owner);\r\n        emit CompanyRegistered(companyId, _name, _vatNumber, _owner);\r\n    }\r\n}\r\n",
  "sourcePath": "C:\\Users\\mario\\Desktop\\WebApp\\FoodTraceability\\contracts\\CompanyRegistry.sol",
  "compiler": {
    "name": "solc",
    "version": "0.8.0+commit.c7dfd78e.Emscripten.clang"
  },
  "schemaVersion": "3.4.16",
  "updatedAt": "2024-06-29T14:39:59.327Z",
  "networkType": "ethereum",
  "devdoc": {
    "kind": "dev",
    "methods": {},
    "version": 1
  },
  "userdoc": {
    "kind": "user",
    "methods": {},
    "version": 1
  }
}