{
  "contractName": "LandRegistry",
  "abi": [
    {
      "anonymous": false,
      "inputs": [
        {
          "indexed": true,
          "internalType": "uint256",
          "name": "landId",
          "type": "uint256"
        },
        {
          "indexed": false,
          "internalType": "string",
          "name": "name",
          "type": "string"
        },
        {
          "indexed": false,
          "internalType": "string",
          "name": "addressLocation",
          "type": "string"
        },
        {
          "indexed": false,
          "internalType": "uint256",
          "name": "totalArea",
          "type": "uint256"
        },
        {
          "indexed": false,
          "internalType": "string",
          "name": "company",
          "type": "string"
        },
        {
          "indexed": false,
          "internalType": "string",
          "name": "additionalInfo",
          "type": "string"
        }
      ],
      "name": "LandRegistered",
      "type": "event"
    },
    {
      "inputs": [
        {
          "internalType": "uint256",
          "name": "",
          "type": "uint256"
        }
      ],
      "name": "lands",
      "outputs": [
        {
          "internalType": "uint256",
          "name": "landId",
          "type": "uint256"
        },
        {
          "internalType": "string",
          "name": "name",
          "type": "string"
        },
        {
          "internalType": "string",
          "name": "addressLocation",
          "type": "string"
        },
        {
          "internalType": "uint256",
          "name": "totalArea",
          "type": "uint256"
        },
        {
          "internalType": "string",
          "name": "company",
          "type": "string"
        },
        {
          "internalType": "string",
          "name": "additionalInfo",
          "type": "string"
        }
      ],
      "stateMutability": "view",
      "type": "function",
      "constant": true
    },
    {
      "inputs": [],
      "name": "nextLandId",
      "outputs": [
        {
          "internalType": "uint256",
          "name": "",
          "type": "uint256"
        }
      ],
      "stateMutability": "view",
      "type": "function",
      "constant": true
    },
    {
      "inputs": [
        {
          "internalType": "string",
          "name": "_name",
          "type": "string"
        },
        {
          "internalType": "string",
          "name": "_addressLocation",
          "type": "string"
        },
        {
          "internalType": "uint256",
          "name": "_totalArea",
          "type": "uint256"
        },
        {
          "internalType": "string",
          "name": "_company",
          "type": "string"
        },
        {
          "internalType": "string",
          "name": "_additionalInfo",
          "type": "string"
        }
      ],
      "name": "registerLand",
      "outputs": [],
      "stateMutability": "nonpayable",
      "type": "function"
    },
    {
      "inputs": [
        {
          "internalType": "uint256",
          "name": "_landId",
          "type": "uint256"
        }
      ],
      "name": "getLandDetails",
      "outputs": [
        {
          "internalType": "string",
          "name": "name",
          "type": "string"
        },
        {
          "internalType": "string",
          "name": "addressLocation",
          "type": "string"
        },
        {
          "internalType": "uint256",
          "name": "totalArea",
          "type": "uint256"
        },
        {
          "internalType": "string",
          "name": "company",
          "type": "string"
        },
        {
          "internalType": "string",
          "name": "additionalInfo",
          "type": "string"
        }
      ],
      "stateMutability": "view",
      "type": "function",
      "constant": true
    }
  ],
  "bytecode": "0x608060405234801561001057600080fd5b50610c98806100206000396000f3fe608060405234801561001057600080fd5b506004361061004c5760003560e01c8063349fa98314610051578063ad9a3eb01461006d578063e261f1e51461008b578063fe0cb7dc146100c0575b600080fd5b61006b6004803603810190610066919061081a565b6100f4565b005b610075610221565b60405161008291906109d1565b60405180910390f35b6100a560048036038101906100a091906108f1565b610227565b6040516100b7969594939291906109ec565b60405180910390f35b6100da60048036038101906100d591906108f1565b610483565b6040516100eb959493929190610962565b60405180910390f35b60006001600081548092919061010990610b64565b9190505590506040518060c00160405280828152602001878152602001868152602001858152602001848152602001838152506000808381526020019081526020016000206000820151816000015560208201518160010190805190602001906101749291906106fa565b5060408201518160020190805190602001906101919291906106fa565b506060820151816003015560808201518160040190805190602001906101b89291906106fa565b5060a08201518160050190805190602001906101d59291906106fa565b50905050807f019cc7092f700af5065b5ab8dc7f4604fe525b267bb9cc0ffe61979f7926bb4f8787878787604051610211959493929190610962565b60405180910390a2505050505050565b60015481565b600060205280600052604060002060009150905080600001549080600101805461025090610b32565b80601f016020809104026020016040519081016040528092919081815260200182805461027c90610b32565b80156102c95780601f1061029e576101008083540402835291602001916102c9565b820191906000526020600020905b8154815290600101906020018083116102ac57829003601f168201915b5050505050908060020180546102de90610b32565b80601f016020809104026020016040519081016040528092919081815260200182805461030a90610b32565b80156103575780601f1061032c57610100808354040283529160200191610357565b820191906000526020600020905b81548152906001019060200180831161033a57829003601f168201915b50505050509080600301549080600401805461037290610b32565b80601f016020809104026020016040519081016040528092919081815260200182805461039e90610b32565b80156103eb5780601f106103c0576101008083540402835291602001916103eb565b820191906000526020600020905b8154815290600101906020018083116103ce57829003601f168201915b50505050509080600501805461040090610b32565b80601f016020809104026020016040519081016040528092919081815260200182805461042c90610b32565b80156104795780601f1061044e57610100808354040283529160200191610479565b820191906000526020600020905b81548152906001019060200180831161045c57829003601f168201915b5050505050905086565b6060806000606080600080600088815260200190815260200160002090508060010181600201826003015483600401846005018480546104c290610b32565b80601f01602080910402602001604051908101604052809291908181526020018280546104ee90610b32565b801561053b5780601f106105105761010080835404028352916020019161053b565b820191906000526020600020905b81548152906001019060200180831161051e57829003601f168201915b5050505050945083805461054e90610b32565b80601f016020809104026020016040519081016040528092919081815260200182805461057a90610b32565b80156105c75780601f1061059c576101008083540402835291602001916105c7565b820191906000526020600020905b8154815290600101906020018083116105aa57829003601f168201915b505050505093508180546105da90610b32565b80601f016020809104026020016040519081016040528092919081815260200182805461060690610b32565b80156106535780601f1061062857610100808354040283529160200191610653565b820191906000526020600020905b81548152906001019060200180831161063657829003601f168201915b5050505050915080805461066690610b32565b80601f016020809104026020016040519081016040528092919081815260200182805461069290610b32565b80156106df5780601f106106b4576101008083540402835291602001916106df565b820191906000526020600020905b8154815290600101906020018083116106c257829003601f168201915b50505050509050955095509550955095505091939590929450565b82805461070690610b32565b90600052602060002090601f016020900481019282610728576000855561076f565b82601f1061074157805160ff191683800117855561076f565b8280016001018555821561076f579182015b8281111561076e578251825591602001919060010190610753565b5b50905061077c9190610780565b5090565b5b80821115610799576000816000905550600101610781565b5090565b60006107b06107ab84610a9a565b610a69565b9050828152602081018484840111156107c857600080fd5b6107d3848285610af0565b509392505050565b600082601f8301126107ec57600080fd5b81356107fc84826020860161079d565b91505092915050565b60008135905061081481610c4b565b92915050565b600080600080600060a0868803121561083257600080fd5b600086013567ffffffffffffffff81111561084c57600080fd5b610858888289016107db565b955050602086013567ffffffffffffffff81111561087557600080fd5b610881888289016107db565b945050604061089288828901610805565b935050606086013567ffffffffffffffff8111156108af57600080fd5b6108bb888289016107db565b925050608086013567ffffffffffffffff8111156108d857600080fd5b6108e4888289016107db565b9150509295509295909350565b60006020828403121561090357600080fd5b600061091184828501610805565b91505092915050565b600061092582610aca565b61092f8185610ad5565b935061093f818560208601610aff565b61094881610c3a565b840191505092915050565b61095c81610ae6565b82525050565b600060a082019050818103600083015261097c818861091a565b90508181036020830152610990818761091a565b905061099f6040830186610953565b81810360608301526109b1818561091a565b905081810360808301526109c5818461091a565b90509695505050505050565b60006020820190506109e66000830184610953565b92915050565b600060c082019050610a016000830189610953565b8181036020830152610a13818861091a565b90508181036040830152610a27818761091a565b9050610a366060830186610953565b8181036080830152610a48818561091a565b905081810360a0830152610a5c818461091a565b9050979650505050505050565b6000604051905081810181811067ffffffffffffffff82111715610a9057610a8f610c0b565b5b8060405250919050565b600067ffffffffffffffff821115610ab557610ab4610c0b565b5b601f19601f8301169050602081019050919050565b600081519050919050565b600082825260208201905092915050565b6000819050919050565b82818337600083830152505050565b60005b83811015610b1d578082015181840152602081019050610b02565b83811115610b2c576000848401525b50505050565b60006002820490506001821680610b4a57607f821691505b60208210811415610b5e57610b5d610bdc565b5b50919050565b6000610b6f82610ae6565b91507fffffffffffffffffffffffffffffffffffffffffffffffffffffffffffffffff821415610ba257610ba1610bad565b5b600182019050919050565b7f4e487b7100000000000000000000000000000000000000000000000000000000600052601160045260246000fd5b7f4e487b7100000000000000000000000000000000000000000000000000000000600052602260045260246000fd5b7f4e487b7100000000000000000000000000000000000000000000000000000000600052604160045260246000fd5b6000601f19601f8301169050919050565b610c5481610ae6565b8114610c5f57600080fd5b5056fea264697066735822122084f8d94c378b328cdd7c83d7153f652c79ba1847aa28ebf24c0d489da4c4aa7264736f6c63430008000033",
  "immutableReferences": {},
  "source": "// SPDX-License-Identifier: MIT\r\npragma solidity ^0.8.0;\r\n\r\ncontract LandRegistry {\r\n    struct Land {\r\n        uint landId;\r\n        string name;\r\n        string addressLocation;\r\n        uint totalArea;\r\n        string company;\r\n        string additionalInfo;\r\n    }\r\n\r\n    mapping(uint => Land) public lands;\r\n    uint public nextLandId;\r\n\r\n    event LandRegistered(uint indexed landId, string name, string addressLocation, uint totalArea, string company, string additionalInfo);\r\n\r\n    function registerLand(string memory _name, string memory _addressLocation, uint _totalArea, string memory _company, string memory _additionalInfo) public {\r\n        uint landId = nextLandId++;\r\n        lands[landId] = Land(landId, _name, _addressLocation, _totalArea, _company, _additionalInfo);\r\n        emit LandRegistered(landId, _name, _addressLocation, _totalArea, _company, _additionalInfo);\r\n    }\r\n\r\n    function getLandDetails(uint _landId) public view returns (string memory name, string memory addressLocation, uint totalArea, string memory company, string memory additionalInfo) {\r\n        Land storage land = lands[_landId];\r\n        return (land.name, land.addressLocation, land.totalArea, land.company, land.additionalInfo);\r\n    }\r\n}\r\n",
  "sourcePath": "C:\\Users\\mario\\Desktop\\WebApp\\FoodTraceability\\contracts\\aggiungiterreno.sol",
  "compiler": {
    "name": "solc",
    "version": "0.8.0+commit.c7dfd78e.Emscripten.clang"
  },
  "schemaVersion": "3.4.16",
  "updatedAt": "2024-06-29T14:39:59.453Z",
  "networkType": "ethereum",
  "devdoc": {
    "kind": "dev",
    "methods": {},
    "version": 1
  },
  "userdoc": {
    "kind": "user",
    "methods": {},
    "version": 1
  }
}