{
  "contractName": "listaziende",
  "abi": [
    {
      "inputs": [
        {
          "internalType": "uint256",
          "name": "",
          "type": "uint256"
        }
      ],
      "name": "companies",
      "outputs": [
        {
          "internalType": "string",
          "name": "name",
          "type": "string"
        },
        {
          "internalType": "string",
          "name": "vatNumber",
          "type": "string"
        },
        {
          "internalType": "string",
          "name": "owner",
          "type": "string"
        }
      ],
      "stateMutability": "view",
      "type": "function"
    },
    {
      "inputs": [
        {
          "internalType": "string",
          "name": "_name",
          "type": "string"
        },
        {
          "internalType": "string",
          "name": "_vatNumber",
          "type": "string"
        },
        {
          "internalType": "string",
          "name": "_owner",
          "type": "string"
        }
      ],
      "name": "registerCompany",
      "outputs": [],
      "stateMutability": "nonpayable",
      "type": "function"
    },
    {
      "inputs": [],
      "name": "getRegisteredCompanies",
      "outputs": [
        {
          "components": [
            {
              "internalType": "string",
              "name": "name",
              "type": "string"
            },
            {
              "internalType": "string",
              "name": "vatNumber",
              "type": "string"
            },
            {
              "internalType": "string",
              "name": "owner",
              "type": "string"
            }
          ],
          "internalType": "struct listaziende.Company[]",
          "name": "",
          "type": "tuple[]"
        }
      ],
      "stateMutability": "view",
      "type": "function"
    }
  ],
  "bytecode": "0x608060405234801561001057600080fd5b50610ae5806100206000396000f3fe608060405234801561001057600080fd5b50600436106100415760003560e01c80632813d19d14610046578063ce0a8ed514610078578063d0b0207414610096575b600080fd5b610060600480360381019061005b91906106f4565b6100b2565b60405161006f93929190610898565b60405180910390f35b610080610284565b60405161008d9190610876565b60405180910390f35b6100b060048036038101906100ab919061065d565b610499565b005b600081815481106100c257600080fd5b90600052602060002090600302016000915090508060000180546100e5906109f7565b80601f0160208091040260200160405190810160405280929190818152602001828054610111906109f7565b801561015e5780601f106101335761010080835404028352916020019161015e565b820191906000526020600020905b81548152906001019060200180831161014157829003601f168201915b505050505090806001018054610173906109f7565b80601f016020809104026020016040519081016040528092919081815260200182805461019f906109f7565b80156101ec5780601f106101c1576101008083540402835291602001916101ec565b820191906000526020600020905b8154815290600101906020018083116101cf57829003601f168201915b505050505090806002018054610201906109f7565b80601f016020809104026020016040519081016040528092919081815260200182805461022d906109f7565b801561027a5780601f1061024f5761010080835404028352916020019161027a565b820191906000526020600020905b81548152906001019060200180831161025d57829003601f168201915b5050505050905083565b60606000805480602002602001604051908101604052809291908181526020016000905b8282101561049057838290600052602060002090600302016040518060600160405290816000820180546102db906109f7565b80601f0160208091040260200160405190810160405280929190818152602001828054610307906109f7565b80156103545780601f1061032957610100808354040283529160200191610354565b820191906000526020600020905b81548152906001019060200180831161033757829003601f168201915b5050505050815260200160018201805461036d906109f7565b80601f0160208091040260200160405190810160405280929190818152602001828054610399906109f7565b80156103e65780601f106103bb576101008083540402835291602001916103e6565b820191906000526020600020905b8154815290600101906020018083116103c957829003601f168201915b505050505081526020016002820180546103ff906109f7565b80601f016020809104026020016040519081016040528092919081815260200182805461042b906109f7565b80156104785780601f1061044d57610100808354040283529160200191610478565b820191906000526020600020905b81548152906001019060200180831161045b57829003601f168201915b505050505081525050815260200190600101906102a8565b50505050905090565b6000604051806060016040528085815260200184815260200183815250908060018154018082558091505060019003906000526020600020906003020160009091909190915060008201518160000190805190602001906104fb92919061053d565b50602082015181600101908051906020019061051892919061053d565b50604082015181600201908051906020019061053592919061053d565b505050505050565b828054610549906109f7565b90600052602060002090601f01602090048101928261056b57600085556105b2565b82601f1061058457805160ff19168380011785556105b2565b828001600101855582156105b2579182015b828111156105b1578251825591602001919060010190610596565b5b5090506105bf91906105c3565b5090565b5b808211156105dc5760008160009055506001016105c4565b5090565b60006105f36105ee84610915565b6108e4565b90508281526020810184848401111561060b57600080fd5b6106168482856109b5565b509392505050565b600082601f83011261062f57600080fd5b813561063f8482602086016105e0565b91505092915050565b60008135905061065781610a98565b92915050565b60008060006060848603121561067257600080fd5b600084013567ffffffffffffffff81111561068c57600080fd5b6106988682870161061e565b935050602084013567ffffffffffffffff8111156106b557600080fd5b6106c18682870161061e565b925050604084013567ffffffffffffffff8111156106de57600080fd5b6106ea8682870161061e565b9150509250925092565b60006020828403121561070657600080fd5b600061071484828501610648565b91505092915050565b60006107298383610818565b905092915050565b600061073c82610955565b6107468185610978565b93508360208202850161075885610945565b8060005b858110156107945784840389528151610775858261071d565b94506107808361096b565b925060208a0199505060018101905061075c565b50829750879550505050505092915050565b60006107b182610960565b6107bb8185610989565b93506107cb8185602086016109c4565b6107d481610a87565b840191505092915050565b60006107ea82610960565b6107f4818561099a565b93506108048185602086016109c4565b61080d81610a87565b840191505092915050565b6000606083016000830151848203600086015261083582826107a6565b9150506020830151848203602086015261084f82826107a6565b9150506040830151848203604086015261086982826107a6565b9150508091505092915050565b600060208201905081810360008301526108908184610731565b905092915050565b600060608201905081810360008301526108b281866107df565b905081810360208301526108c681856107df565b905081810360408301526108da81846107df565b9050949350505050565b6000604051905081810181811067ffffffffffffffff8211171561090b5761090a610a58565b5b8060405250919050565b600067ffffffffffffffff8211156109305761092f610a58565b5b601f19601f8301169050602081019050919050565b6000819050602082019050919050565b600081519050919050565b600081519050919050565b6000602082019050919050565b600082825260208201905092915050565b600082825260208201905092915050565b600082825260208201905092915050565b6000819050919050565b82818337600083830152505050565b60005b838110156109e25780820151818401526020810190506109c7565b838111156109f1576000848401525b50505050565b60006002820490506001821680610a0f57607f821691505b60208210811415610a2357610a22610a29565b5b50919050565b7f4e487b7100000000000000000000000000000000000000000000000000000000600052602260045260246000fd5b7f4e487b7100000000000000000000000000000000000000000000000000000000600052604160045260246000fd5b6000601f19601f8301169050919050565b610aa1816109ab565b8114610aac57600080fd5b5056fea26469706673582212207aab4229d9f38138b568a1020cbcb44d6213119637f18d20b4f04097408c54e464736f6c63430008000033",
  "immutableReferences": {},
  "source": "// SPDX-License-Identifier: MIT\r\npragma solidity ^0.8.0;\r\n\r\ncontract listaziende {\r\n    struct Company {\r\n        string name;\r\n        string vatNumber;\r\n        string owner;\r\n    }\r\n\r\n    Company[] public companies;\r\n\r\n    function registerCompany(string memory _name, string memory _vatNumber, string memory _owner) public {\r\n        companies.push(Company(_name, _vatNumber, _owner));\r\n    }\r\n\r\n    function getRegisteredCompanies() public view returns (Company[] memory) {\r\n        return companies;\r\n    }\r\n}\r\n",
  "sourcePath": "C:\\Users\\mario\\Desktop\\WebApp\\FoodTraceability\\contracts\\lista_aziende.sol",
  "compiler": {
    "name": "solc",
    "version": "0.8.0+commit.c7dfd78e.Emscripten.clang"
  },
  "schemaVersion": "3.4.16",
  "updatedAt": "2024-06-29T14:39:57.466Z",
  "devdoc": {
    "kind": "dev",
    "methods": {},
    "version": 1
  },
  "userdoc": {
    "kind": "user",
    "methods": {},
    "version": 1
  }
}