{
  "contractName": "LotRegistry",
  "abi": [
    {
      "anonymous": false,
      "inputs": [
        {
          "indexed": true,
          "internalType": "uint256",
          "name": "lotId",
          "type": "uint256"
        },
        {
          "indexed": false,
          "internalType": "string",
          "name": "name",
          "type": "string"
        },
        {
          "indexed": false,
          "internalType": "string",
          "name": "species",
          "type": "string"
        },
        {
          "indexed": false,
          "internalType": "uint256",
          "name": "totalArea",
          "type": "uint256"
        },
        {
          "indexed": false,
          "internalType": "string",
          "name": "company",
          "type": "string"
        }
      ],
      "name": "LotRegistered",
      "type": "event"
    },
    {
      "inputs": [
        {
          "internalType": "uint256",
          "name": "",
          "type": "uint256"
        }
      ],
      "name": "lots",
      "outputs": [
        {
          "internalType": "uint256",
          "name": "lotId",
          "type": "uint256"
        },
        {
          "internalType": "string",
          "name": "species",
          "type": "string"
        },
        {
          "internalType": "string",
          "name": "variety",
          "type": "string"
        },
        {
          "internalType": "uint256",
          "name": "cultivatedArea",
          "type": "uint256"
        },
        {
          "internalType": "string",
          "name": "plantingDensity",
          "type": "string"
        },
        {
          "internalType": "uint256",
          "name": "landId",
          "type": "uint256"
        },
        {
          "internalType": "string",
          "name": "company",
          "type": "string"
        }
      ],
      "stateMutability": "view",
      "type": "function",
      "constant": true
    },
    {
      "inputs": [],
      "name": "nextLotId",
      "outputs": [
        {
          "internalType": "uint256",
          "name": "",
          "type": "uint256"
        }
      ],
      "stateMutability": "view",
      "type": "function",
      "constant": true
    },
    {
      "inputs": [
        {
          "internalType": "uint256",
          "name": "_lotId",
          "type": "uint256"
        },
        {
          "internalType": "string",
          "name": "_species",
          "type": "string"
        },
        {
          "internalType": "string",
          "name": "_variety",
          "type": "string"
        },
        {
          "internalType": "uint256",
          "name": "_cultivatedArea",
          "type": "uint256"
        },
        {
          "internalType": "string",
          "name": "_plantingDensity",
          "type": "string"
        },
        {
          "internalType": "uint256",
          "name": "_landId",
          "type": "uint256"
        },
        {
          "internalType": "string",
          "name": "_company",
          "type": "string"
        }
      ],
      "name": "registerLot",
      "outputs": [],
      "stateMutability": "nonpayable",
      "type": "function"
    },
    {
      "inputs": [
        {
          "internalType": "uint256",
          "name": "_lotId",
          "type": "uint256"
        }
      ],
      "name": "getLotDetails",
      "outputs": [
        {
          "internalType": "string",
          "name": "species",
          "type": "string"
        },
        {
          "internalType": "string",
          "name": "variety",
          "type": "string"
        },
        {
          "internalType": "uint256",
          "name": "cultivatedArea",
          "type": "uint256"
        },
        {
          "internalType": "string",
          "name": "plantingDensity",
          "type": "string"
        },
        {
          "internalType": "uint256",
          "name": "landId",
          "type": "uint256"
        },
        {
          "internalType": "string",
          "name": "company",
          "type": "string"
        }
      ],
      "stateMutability": "view",
      "type": "function",
      "constant": true
    }
  ],
  "bytecode": "0x608060405234801561001057600080fd5b50610e56806100206000396000f3fe608060405234801561001057600080fd5b506004361061004c5760003560e01c8063c82ad8f014610051578063d666f29e1461006d578063e3c7f6df1461008b578063f1648e84146100c0575b600080fd5b61006b60048036038101906100669190610904565b6100f6565b005b61007561028d565b6040516100829190610b81565b60405180910390f35b6100a560048036038101906100a091906108db565b610293565b6040516100b796959493929190610ae4565b60405180910390f35b6100da60048036038101906100d591906108db565b610559565b6040516100ed9796959493929190610b9c565b60405180910390f35b6000806000898152602001908152602001600020600001541461014e576040517f08c379a000000000000000000000000000000000000000000000000000000000815260040161014590610b61565b60405180910390fd5b60006040518060e00160405280898152602001888152602001878152602001868152602001858152602001848152602001838152509050806000808a81526020019081526020016000206000820151816000015560208201518160010190805190602001906101be9291906107bb565b5060408201518160020190805190602001906101db9291906107bb565b506060820151816003015560808201518160040190805190602001906102029291906107bb565b5060a0820151816005015560c08201518160060190805190602001906102299291906107bb565b509050506001600081548092919061024090610d22565b9190505550877fc667b3b2047cefcd349ce21242f36dd67bba5f289ec935ffc55a822ce2073e298888888660405161027b9493929190610a8a565b60405180910390a25050505050505050565b60015481565b606080600060606000606060008060008981526020019081526020016000206040518060e0016040529081600082015481526020016001820180546102d790610cf0565b80601f016020809104026020016040519081016040528092919081815260200182805461030390610cf0565b80156103505780601f1061032557610100808354040283529160200191610350565b820191906000526020600020905b81548152906001019060200180831161033357829003601f168201915b5050505050815260200160028201805461036990610cf0565b80601f016020809104026020016040519081016040528092919081815260200182805461039590610cf0565b80156103e25780601f106103b7576101008083540402835291602001916103e2565b820191906000526020600020905b8154815290600101906020018083116103c557829003601f168201915b505050505081526020016003820154815260200160048201805461040590610cf0565b80601f016020809104026020016040519081016040528092919081815260200182805461043190610cf0565b801561047e5780601f106104535761010080835404028352916020019161047e565b820191906000526020600020905b81548152906001019060200180831161046157829003601f168201915b50505050508152602001600582015481526020016006820180546104a190610cf0565b80601f01602080910402602001604051908101604052809291908181526020018280546104cd90610cf0565b801561051a5780601f106104ef5761010080835404028352916020019161051a565b820191906000526020600020905b8154815290600101906020018083116104fd57829003601f168201915b505050505081525050905080602001518160400151826060015183608001518460a001518560c001519650965096509650965096505091939550919395565b600060205280600052604060002060009150905080600001549080600101805461058290610cf0565b80601f01602080910402602001604051908101604052809291908181526020018280546105ae90610cf0565b80156105fb5780601f106105d0576101008083540402835291602001916105fb565b820191906000526020600020905b8154815290600101906020018083116105de57829003601f168201915b50505050509080600201805461061090610cf0565b80601f016020809104026020016040519081016040528092919081815260200182805461063c90610cf0565b80156106895780601f1061065e57610100808354040283529160200191610689565b820191906000526020600020905b81548152906001019060200180831161066c57829003601f168201915b5050505050908060030154908060040180546106a490610cf0565b80601f01602080910402602001604051908101604052809291908181526020018280546106d090610cf0565b801561071d5780601f106106f25761010080835404028352916020019161071d565b820191906000526020600020905b81548152906001019060200180831161070057829003601f168201915b50505050509080600501549080600601805461073890610cf0565b80601f016020809104026020016040519081016040528092919081815260200182805461076490610cf0565b80156107b15780601f10610786576101008083540402835291602001916107b1565b820191906000526020600020905b81548152906001019060200180831161079457829003601f168201915b5050505050905087565b8280546107c790610cf0565b90600052602060002090601f0160209004810192826107e95760008555610830565b82601f1061080257805160ff1916838001178555610830565b82800160010185558215610830579182015b8281111561082f578251825591602001919060010190610814565b5b50905061083d9190610841565b5090565b5b8082111561085a576000816000905550600101610842565b5090565b600061087161086c84610c58565b610c27565b90508281526020810184848401111561088957600080fd5b610894848285610cae565b509392505050565b600082601f8301126108ad57600080fd5b81356108bd84826020860161085e565b91505092915050565b6000813590506108d581610e09565b92915050565b6000602082840312156108ed57600080fd5b60006108fb848285016108c6565b91505092915050565b600080600080600080600060e0888a03121561091f57600080fd5b600061092d8a828b016108c6565b975050602088013567ffffffffffffffff81111561094a57600080fd5b6109568a828b0161089c565b965050604088013567ffffffffffffffff81111561097357600080fd5b61097f8a828b0161089c565b95505060606109908a828b016108c6565b945050608088013567ffffffffffffffff8111156109ad57600080fd5b6109b98a828b0161089c565b93505060a06109ca8a828b016108c6565b92505060c088013567ffffffffffffffff8111156109e757600080fd5b6109f38a828b0161089c565b91505092959891949750929550565b6000610a0d82610c88565b610a178185610c93565b9350610a27818560208601610cbd565b610a3081610df8565b840191505092915050565b6000610a48601583610c93565b91507f4c6f7420494420616c72656164792065786973747300000000000000000000006000830152602082019050919050565b610a8481610ca4565b82525050565b60006080820190508181036000830152610aa48187610a02565b90508181036020830152610ab88186610a02565b9050610ac76040830185610a7b565b8181036060830152610ad98184610a02565b905095945050505050565b600060c0820190508181036000830152610afe8189610a02565b90508181036020830152610b128188610a02565b9050610b216040830187610a7b565b8181036060830152610b338186610a02565b9050610b426080830185610a7b565b81810360a0830152610b548184610a02565b9050979650505050505050565b60006020820190508181036000830152610b7a81610a3b565b9050919050565b6000602082019050610b966000830184610a7b565b92915050565b600060e082019050610bb1600083018a610a7b565b8181036020830152610bc38189610a02565b90508181036040830152610bd78188610a02565b9050610be66060830187610a7b565b8181036080830152610bf88186610a02565b9050610c0760a0830185610a7b565b81810360c0830152610c198184610a02565b905098975050505050505050565b6000604051905081810181811067ffffffffffffffff82111715610c4e57610c4d610dc9565b5b8060405250919050565b600067ffffffffffffffff821115610c7357610c72610dc9565b5b601f19601f8301169050602081019050919050565b600081519050919050565b600082825260208201905092915050565b6000819050919050565b82818337600083830152505050565b60005b83811015610cdb578082015181840152602081019050610cc0565b83811115610cea576000848401525b50505050565b60006002820490506001821680610d0857607f821691505b60208210811415610d1c57610d1b610d9a565b5b50919050565b6000610d2d82610ca4565b91507fffffffffffffffffffffffffffffffffffffffffffffffffffffffffffffffff821415610d6057610d5f610d6b565b5b600182019050919050565b7f4e487b7100000000000000000000000000000000000000000000000000000000600052601160045260246000fd5b7f4e487b7100000000000000000000000000000000000000000000000000000000600052602260045260246000fd5b7f4e487b7100000000000000000000000000000000000000000000000000000000600052604160045260246000fd5b6000601f19601f8301169050919050565b610e1281610ca4565b8114610e1d57600080fd5b5056fea26469706673582212202743d5337616847bb0dd7a0c4d182a271038275e2bb5887d7e446c750dd2280a64736f6c63430008000033",
  "immutableReferences": {},
  "source": "// SPDX-License-Identifier: MIT\r\n\r\npragma solidity ^0.8.0;\r\n\r\ncontract LotRegistry {\r\n    struct Lot {\r\n        uint256 lotId;\r\n        string species;\r\n        string variety;\r\n        uint256 cultivatedArea;\r\n        string plantingDensity;\r\n        uint256 landId;\r\n        string company;\r\n    }\r\n\r\n    mapping(uint256 => Lot) public lots;\r\n    uint256 public nextLotId;\r\n\r\n    event LotRegistered(\r\n        uint256 indexed lotId,\r\n        string name,\r\n        string species,\r\n        uint256 totalArea,\r\n        string company\r\n    );\r\n\r\n    function registerLot(\r\n        uint256 _lotId,\r\n        string memory _species,\r\n        string memory _variety,\r\n        uint256 _cultivatedArea,\r\n        string memory _plantingDensity,\r\n        uint256 _landId,\r\n        string memory _company\r\n    ) external {\r\n        require(lots[_lotId].lotId == 0, \"Lot ID already exists\");\r\n\r\n        Lot memory newLot = Lot({\r\n            lotId: _lotId,\r\n            species: _species,\r\n            variety: _variety,\r\n            cultivatedArea: _cultivatedArea,\r\n            plantingDensity: _plantingDensity,\r\n            landId: _landId,\r\n            company: _company\r\n        });\r\n\r\n        lots[_lotId] = newLot;\r\n        nextLotId++;\r\n\r\n        emit LotRegistered(_lotId, _species, _variety, _cultivatedArea, _company);\r\n    }\r\n\r\n    function getLotDetails(uint256 _lotId)\r\n        external\r\n        view\r\n        returns (\r\n            string memory species,\r\n            string memory variety,\r\n            uint256 cultivatedArea,\r\n            string memory plantingDensity,\r\n            uint256 landId,\r\n            string memory company\r\n        )\r\n    {\r\n        Lot memory lot = lots[_lotId];\r\n        return (\r\n            lot.species,\r\n            lot.variety,\r\n            lot.cultivatedArea,\r\n            lot.plantingDensity,\r\n            lot.landId,\r\n            lot.company\r\n        );\r\n    }\r\n}\r\n",
  "sourcePath": "C:\\Users\\mario\\Desktop\\WebApp\\FoodTraceability\\contracts\\aggiungilotto.sol",
  "compiler": {
    "name": "solc",
    "version": "0.8.0+commit.c7dfd78e.Emscripten.clang"
  },
  "schemaVersion": "3.4.16",
  "updatedAt": "2024-06-29T14:39:59.568Z",
  "networkType": "ethereum",
  "devdoc": {
    "kind": "dev",
    "methods": {},
    "version": 1
  },
  "userdoc": {
    "kind": "user",
    "methods": {},
    "version": 1
  }
}