{
  "contractName": "ProductRegistry",
  "abi": [
    {
      "anonymous": false,
      "inputs": [
        {
          "indexed": true,
          "internalType": "string",
          "name": "productId",
          "type": "string"
        },
        {
          "indexed": false,
          "internalType": "string",
          "name": "productName",
          "type": "string"
        },
        {
          "indexed": false,
          "internalType": "string",
          "name": "processingLocation",
          "type": "string"
        },
        {
          "indexed": false,
          "internalType": "string",
          "name": "batchNumber",
          "type": "string"
        },
        {
          "indexed": false,
          "internalType": "string",
          "name": "productionDate",
          "type": "string"
        },
        {
          "indexed": false,
          "internalType": "string",
          "name": "eventPerformed",
          "type": "string"
        }
      ],
      "name": "ProductRegistered",
      "type": "event"
    },
    {
      "inputs": [
        {
          "internalType": "string",
          "name": "_productId",
          "type": "string"
        },
        {
          "internalType": "string",
          "name": "_productName",
          "type": "string"
        },
        {
          "internalType": "string",
          "name": "_processingLocation",
          "type": "string"
        },
        {
          "internalType": "string",
          "name": "_batchNumber",
          "type": "string"
        },
        {
          "internalType": "string",
          "name": "_productionDate",
          "type": "string"
        },
        {
          "internalType": "string",
          "name": "_eventPerformed",
          "type": "string"
        }
      ],
      "name": "registerProduct",
      "outputs": [],
      "stateMutability": "nonpayable",
      "type": "function"
    },
    {
      "inputs": [
        {
          "internalType": "string",
          "name": "_productId",
          "type": "string"
        }
      ],
      "name": "getProduct",
      "outputs": [
        {
          "internalType": "string",
          "name": "",
          "type": "string"
        },
        {
          "internalType": "string",
          "name": "",
          "type": "string"
        },
        {
          "internalType": "string",
          "name": "",
          "type": "string"
        },
        {
          "internalType": "string",
          "name": "",
          "type": "string"
        },
        {
          "internalType": "string",
          "name": "",
          "type": "string"
        },
        {
          "internalType": "string",
          "name": "",
          "type": "string"
        }
      ],
      "stateMutability": "view",
      "type": "function",
      "constant": true
    }
  ],
  "bytecode": "0x608060405234801561001057600080fd5b50610ce1806100206000396000f3fe608060405234801561001057600080fd5b50600436106100365760003560e01c806368111cce1461003b57806393a31a9814610070575b600080fd5b610055600480360381019061005091906107a4565b61008c565b60405161006796959493929190610a75565b60405180910390f35b61008a600480360381019061008591906107e5565b6104d1565b005b606080606080606080600080886040516100a691906109e8565b908152602001604051809103902060000180546100c290610c0a565b90501415610105576040517f08c379a00000000000000000000000000000000000000000000000000000000081526004016100fc90610b00565b60405180910390fd5b6000808860405161011691906109e8565b90815260200160405180910390206040518060c001604052908160008201805461013f90610c0a565b80601f016020809104026020016040519081016040528092919081815260200182805461016b90610c0a565b80156101b85780601f1061018d576101008083540402835291602001916101b8565b820191906000526020600020905b81548152906001019060200180831161019b57829003601f168201915b505050505081526020016001820180546101d190610c0a565b80601f01602080910402602001604051908101604052809291908181526020018280546101fd90610c0a565b801561024a5780601f1061021f5761010080835404028352916020019161024a565b820191906000526020600020905b81548152906001019060200180831161022d57829003601f168201915b5050505050815260200160028201805461026390610c0a565b80601f016020809104026020016040519081016040528092919081815260200182805461028f90610c0a565b80156102dc5780601f106102b1576101008083540402835291602001916102dc565b820191906000526020600020905b8154815290600101906020018083116102bf57829003601f168201915b505050505081526020016003820180546102f590610c0a565b80601f016020809104026020016040519081016040528092919081815260200182805461032190610c0a565b801561036e5780601f106103435761010080835404028352916020019161036e565b820191906000526020600020905b81548152906001019060200180831161035157829003601f168201915b5050505050815260200160048201805461038790610c0a565b80601f01602080910402602001604051908101604052809291908181526020018280546103b390610c0a565b80156104005780601f106103d557610100808354040283529160200191610400565b820191906000526020600020905b8154815290600101906020018083116103e357829003601f168201915b5050505050815260200160058201805461041990610c0a565b80601f016020809104026020016040519081016040528092919081815260200182805461044590610c0a565b80156104925780601f1061046757610100808354040283529160200191610492565b820191906000526020600020905b81548152906001019060200180831161047557829003601f168201915b5050505050815250509050806000015181602001518260400151836060015184608001518560a001519650965096509650965096505091939550919395565b600080876040516104e291906109e8565b908152602001604051809103902060000180546104fe90610c0a565b905014610540576040517f08c379a000000000000000000000000000000000000000000000000000000000815260040161053790610b20565b60405180910390fd5b6040518060c001604052808781526020018681526020018581526020018481526020018381526020018281525060008760405161057d91906109e8565b908152602001604051809103902060008201518160000190805190602001906105a7929190610699565b5060208201518160010190805190602001906105c4929190610699565b5060408201518160020190805190602001906105e1929190610699565b5060608201518160030190805190602001906105fe929190610699565b50608082015181600401908051906020019061061b929190610699565b5060a0820151816005019080519060200190610638929190610699565b509050508560405161064a91906109e8565b60405180910390207fb2c7c862783d1799ca01e5c56d137d40fc40821e18c6d4f68072024369061fba86868686866040516106899594939291906109ff565b60405180910390a2505050505050565b8280546106a590610c0a565b90600052602060002090601f0160209004810192826106c7576000855561070e565b82601f106106e057805160ff191683800117855561070e565b8280016001018555821561070e579182015b8281111561070d5782518255916020019190600101906106f2565b5b50905061071b919061071f565b5090565b5b80821115610738576000816000905550600101610720565b5090565b600061074f61074a84610b71565b610b40565b90508281526020810184848401111561076757600080fd5b610772848285610bc8565b509392505050565b600082601f83011261078b57600080fd5b813561079b84826020860161073c565b91505092915050565b6000602082840312156107b657600080fd5b600082013567ffffffffffffffff8111156107d057600080fd5b6107dc8482850161077a565b91505092915050565b60008060008060008060c087890312156107fe57600080fd5b600087013567ffffffffffffffff81111561081857600080fd5b61082489828a0161077a565b965050602087013567ffffffffffffffff81111561084157600080fd5b61084d89828a0161077a565b955050604087013567ffffffffffffffff81111561086a57600080fd5b61087689828a0161077a565b945050606087013567ffffffffffffffff81111561089357600080fd5b61089f89828a0161077a565b935050608087013567ffffffffffffffff8111156108bc57600080fd5b6108c889828a0161077a565b92505060a087013567ffffffffffffffff8111156108e557600080fd5b6108f189828a0161077a565b9150509295509295509295565b600061090982610ba1565b6109138185610bac565b9350610923818560208601610bd7565b61092c81610c9a565b840191505092915050565b600061094282610ba1565b61094c8185610bbd565b935061095c818560208601610bd7565b80840191505092915050565b6000610975601183610bac565b91507f50726f64756374206e6f7420666f756e640000000000000000000000000000006000830152602082019050919050565b60006109b5601a83610bac565b91507f50726f6475637420616c726561647920726567697374657265640000000000006000830152602082019050919050565b60006109f48284610937565b915081905092915050565b600060a0820190508181036000830152610a1981886108fe565b90508181036020830152610a2d81876108fe565b90508181036040830152610a4181866108fe565b90508181036060830152610a5581856108fe565b90508181036080830152610a6981846108fe565b90509695505050505050565b600060c0820190508181036000830152610a8f81896108fe565b90508181036020830152610aa381886108fe565b90508181036040830152610ab781876108fe565b90508181036060830152610acb81866108fe565b90508181036080830152610adf81856108fe565b905081810360a0830152610af381846108fe565b9050979650505050505050565b60006020820190508181036000830152610b1981610968565b9050919050565b60006020820190508181036000830152610b39816109a8565b9050919050565b6000604051905081810181811067ffffffffffffffff82111715610b6757610b66610c6b565b5b8060405250919050565b600067ffffffffffffffff821115610b8c57610b8b610c6b565b5b601f19601f8301169050602081019050919050565b600081519050919050565b600082825260208201905092915050565b600081905092915050565b82818337600083830152505050565b60005b83811015610bf5578082015181840152602081019050610bda565b83811115610c04576000848401525b50505050565b60006002820490506001821680610c2257607f821691505b60208210811415610c3657610c35610c3c565b5b50919050565b7f4e487b7100000000000000000000000000000000000000000000000000000000600052602260045260246000fd5b7f4e487b7100000000000000000000000000000000000000000000000000000000600052604160045260246000fd5b6000601f19601f830116905091905056fea26469706673582212202e03b91a7d419d62d6a7ecebfdc7c6e13cf5735958fb115806e7223a11b0b61264736f6c63430008000033",
  "immutableReferences": {},
  "source": "// SPDX-License-Identifier: MIT\r\npragma solidity ^0.8.0;\r\n\r\ncontract ProductRegistry {\r\n    struct Product {\r\n        string productId;\r\n        string productName;\r\n        string processingLocation;\r\n        string batchNumber;\r\n        string productionDate;\r\n        string eventPerformed;\r\n    }\r\n\r\n    mapping(string => Product) private products;\r\n\r\n    event ProductRegistered(\r\n        string indexed productId,\r\n        string productName,\r\n        string processingLocation,\r\n        string batchNumber,\r\n        string productionDate,\r\n        string eventPerformed\r\n    );\r\n\r\n    function registerProduct(\r\n        string memory _productId,\r\n        string memory _productName,\r\n        string memory _processingLocation,\r\n        string memory _batchNumber,\r\n        string memory _productionDate,\r\n        string memory _eventPerformed\r\n    ) public {\r\n        require(bytes(products[_productId].productId).length == 0, \"Product already registered\");\r\n\r\n        products[_productId] = Product({\r\n            productId: _productId,\r\n            productName: _productName,\r\n            processingLocation: _processingLocation,\r\n            batchNumber: _batchNumber,\r\n            productionDate: _productionDate,\r\n            eventPerformed: _eventPerformed\r\n        });\r\n\r\n        emit ProductRegistered(_productId, _productName, _processingLocation, _batchNumber, _productionDate, _eventPerformed);\r\n    }\r\n\r\n    function getProduct(string memory _productId) public view returns (string memory, string memory, string memory, string memory, string memory, string memory) {\r\n        require(bytes(products[_productId].productId).length != 0, \"Product not found\");\r\n\r\n        Product memory product = products[_productId];\r\n        return (\r\n            product.productId,\r\n            product.productName,\r\n            product.processingLocation,\r\n            product.batchNumber,\r\n            product.productionDate,\r\n            product.eventPerformed\r\n        );\r\n    }\r\n}\r\n",
  "sourcePath": "C:\\Users\\mario\\Desktop\\WebApp\\FoodTraceability\\contracts\\prodotto_generale.sol",
  "compiler": {
    "name": "solc",
    "version": "0.8.0+commit.c7dfd78e.Emscripten.clang"
  },
  "schemaVersion": "3.4.16",
  "updatedAt": "2024-06-29T14:39:59.218Z",
  "networkType": "ethereum",
  "devdoc": {
    "kind": "dev",
    "methods": {},
    "version": 1
  },
  "userdoc": {
    "kind": "user",
    "methods": {},
    "version": 1
  }
}